{
  "transactions": [
    {
      "hash": "0x40e97311efb2c269edcfa1122f236ec0cae64313707ba6c3b9a30c5507fca808",
      "transactionType": "CREATE",
      "contractName": "AirdropToken",
      "contractAddress": "0x823a018fb1f658a16d0156c97ac5e1a008310066",
      "function": null,
      "arguments": null,
      "transaction": {
        "from": "0xa106b1558dc86e6bed0869767857be0e7d808852",
        "gas": "0xeaed4",
        "value": "0x0",
        "input": "0x608060405234801561001057600080fd5b50336040518060400160405280600d81526020016c20b4b9323937b8102a37b5b2b760991b81525060405180604001604052806006815260200165111493d41a5d60d21b81525081600390816100669190610345565b5060046100738282610345565b5050506001600160a01b0381166100a557604051631e4fbdf760e01b8152600060048201526024015b60405180910390fd5b6100ae816100f0565b506100c33369d3c21bcecceda1000000610142565b6100eb732b00a9166290e56990eadd2c09709a88bd43146b69d3c21bcecceda1000000610142565b61042a565b600580546001600160a01b038381166001600160a01b0319831681179093556040519116919082907f8be0079c531659141344cd1fd0a4f28419497f9722a3daafe3b4186f6b6457e090600090a35050565b6001600160a01b03821661016c5760405163ec442f0560e01b81526000600482015260240161009c565b6101786000838361017c565b5050565b6001600160a01b0383166101a757806002600082825461019c9190610403565b909155506102199050565b6001600160a01b038316600090815260208190526040902054818110156101fa5760405163391434e360e21b81526001600160a01b0385166004820152602481018290526044810183905260640161009c565b6001600160a01b03841660009081526020819052604090209082900390555b6001600160a01b03821661023557600280548290039055610254565b6001600160a01b03821660009081526020819052604090208054820190555b816001600160a01b0316836001600160a01b03167fddf252ad1be2c89b69c2b068fc378daa952ba7f163c4a11628f55a4df523b3ef8360405161029991815260200190565b60405180910390a3505050565b634e487b7160e01b600052604160045260246000fd5b600181811c908216806102d057607f821691505b6020821081036102f057634e487b7160e01b600052602260045260246000fd5b50919050565b601f82111561034057806000526020600020601f840160051c8101602085101561031d5750805b601f840160051c820191505b8181101561033d5760008155600101610329565b50505b505050565b81516001600160401b0381111561035e5761035e6102a6565b6103728161036c84546102bc565b846102f6565b6020601f8211600181146103a6576000831561038e5750848201515b600019600385901b1c1916600184901b17845561033d565b600084815260208120601f198516915b828110156103d657878501518255602094850194600190920191016103b6565b50848210156103f45786840151600019600387901b60f8161c191681555b50505050600190811b01905550565b8082018082111561042457634e487b7160e01b600052601160045260246000fd5b92915050565b610999806104396000396000f3fe608060405234801561001057600080fd5b50600436106101005760003560e01c806370a082311161009757806395d89b411161006657806395d89b4114610212578063a9059cbb1461021a578063dd62ed3e1461022d578063f2fde38b1461026657600080fd5b806370a08231146101b3578063715018a6146101dc57806379cc6790146101e45780638da5cb5b146101f757600080fd5b80632ff2e9dc116100d35780632ff2e9dc1461016b578063313ce5671461017c57806340c10f191461018b57806342966c68146101a057600080fd5b806306fdde0314610105578063095ea7b31461012357806318160ddd1461014657806323b872dd14610158575b600080fd5b61010d610279565b60405161011a91906107c9565b60405180910390f35b610136610131366004610833565b61030b565b604051901515815260200161011a565b6002545b60405190815260200161011a565b61013661016636600461085d565b610325565b61014a69d3c21bcecceda100000081565b6040516012815260200161011a565b61019e610199366004610833565b610349565b005b61019e6101ae36600461089a565b61035f565b61014a6101c13660046108b3565b6001600160a01b031660009081526020819052604090205490565b61019e61036c565b61019e6101f2366004610833565b610380565b6005546040516001600160a01b03909116815260200161011a565b61010d610392565b610136610228366004610833565b6103a1565b61014a61023b3660046108d5565b6001600160a01b03918216600090815260016020908152604080832093909416825291909152205490565b61019e6102743660046108b3565b6103af565b60606003805461028890610908565b80601f01602080910402602001604051908101604052809291908181526020018280546102b490610908565b80156103015780601f106102d657610100808354040283529160200191610301565b820191906000526020600020905b8154815290600101906020018083116102e457829003601f168201915b5050505050905090565b6000336103198185856103ef565b60019150505b92915050565b600033610333858285610401565b61033e858585610480565b506001949350505050565b6103516104df565b61035b828261050c565b5050565b6103693382610542565b50565b6103746104df565b61037e6000610578565b565b6103886104df565b61035b8282610542565b60606004805461028890610908565b600033610319818585610480565b6103b76104df565b6001600160a01b0381166103e657604051631e4fbdf760e01b8152600060048201526024015b60405180910390fd5b61036981610578565b6103fc83838360016105ca565b505050565b6001600160a01b0383811660009081526001602090815260408083209386168352929052205460001981101561047a578181101561046b57604051637dc7a0d960e11b81526001600160a01b038416600482015260248101829052604481018390526064016103dd565b61047a848484840360006105ca565b50505050565b6001600160a01b0383166104aa57604051634b637e8f60e11b8152600060048201526024016103dd565b6001600160a01b0382166104d45760405163ec442f0560e01b8152600060048201526024016103dd565b6103fc83838361069f565b6005546001600160a01b0316331461037e5760405163118cdaa760e01b81523360048201526024016103dd565b6001600160a01b0382166105365760405163ec442f0560e01b8152600060048201526024016103dd565b61035b6000838361069f565b6001600160a01b03821661056c57604051634b637e8f60e11b8152600060048201526024016103dd565b61035b8260008361069f565b600580546001600160a01b038381166001600160a01b0319831681179093556040519116919082907f8be0079c531659141344cd1fd0a4f28419497f9722a3daafe3b4186f6b6457e090600090a35050565b6001600160a01b0384166105f45760405163e602df0560e01b8152600060048201526024016103dd565b6001600160a01b03831661061e57604051634a1406b160e11b8152600060048201526024016103dd565b6001600160a01b038085166000908152600160209081526040808320938716835292905220829055801561047a57826001600160a01b0316846001600160a01b03167f8c5be1e5ebec7d5bd14f71427d1e84f3dd0314c0f7b2291e5b200ac8c7c3b9258460405161069191815260200190565b60405180910390a350505050565b6001600160a01b0383166106ca5780600260008282546106bf9190610942565b9091555061073c9050565b6001600160a01b0383166000908152602081905260409020548181101561071d5760405163391434e360e21b81526001600160a01b038516600482015260248101829052604481018390526064016103dd565b6001600160a01b03841660009081526020819052604090209082900390555b6001600160a01b03821661075857600280548290039055610777565b6001600160a01b03821660009081526020819052604090208054820190555b816001600160a01b0316836001600160a01b03167fddf252ad1be2c89b69c2b068fc378daa952ba7f163c4a11628f55a4df523b3ef836040516107bc91815260200190565b60405180910390a3505050565b602081526000825180602084015260005b818110156107f757602081860181015160408684010152016107da565b506000604082850101526040601f19601f83011684010191505092915050565b80356001600160a01b038116811461082e57600080fd5b919050565b6000806040838503121561084657600080fd5b61084f83610817565b946020939093013593505050565b60008060006060848603121561087257600080fd5b61087b84610817565b925061088960208501610817565b929592945050506040919091013590565b6000602082840312156108ac57600080fd5b5035919050565b6000602082840312156108c557600080fd5b6108ce82610817565b9392505050565b600080604083850312156108e857600080fd5b6108f183610817565b91506108ff60208401610817565b90509250929050565b600181811c9082168061091c57607f821691505b60208210810361093c57634e487b7160e01b600052602260045260246000fd5b50919050565b8082018082111561031f57634e487b7160e01b600052601160045260246000fdfea264697066735822122065fea9d524fde0c3a35266fe7c24407b44044b7c5060a970bcca49adb2a929de64736f6c634300081e0033",
        "nonce": "0x4",
        "chainId": "0x61"
      },
      "additionalContracts": [],
      "isFixedGasLimit": false
    },
    {
      "hash": "0xd4ec4be4e4983524922e74b0ba5e88af4cb7f63c3ee984082ace0c31b778b660",
      "transactionType": "CREATE",
      "contractName": "TokenDistributor",
      "contractAddress": "0xf95cfafb07dc603606ac437edd6950d6729b070c",
      "function": null,
      "arguments": null,
      "transaction": {
        "from": "0xa106b1558dc86e6bed0869767857be0e7d808852",
        "gas": "0xd4454",
        "value": "0x0",
        "input": "0x6080604052348015600f57600080fd5b503380603557604051631e4fbdf760e01b81526000600482015260240160405180910390fd5b603c816041565b506091565b600080546001600160a01b038381166001600160a01b0319831681178455604051919092169283917f8be0079c531659141344cd1fd0a4f28419497f9722a3daafe3b4186f6b6457e09190a35050565b610aac806100a06000396000f3fe608060405234801561001057600080fd5b50600436106100575760003560e01c806308bd9a1f1461005c578063715018a614610071578063790e51b2146100795780638da5cb5b1461008c578063f2fde38b146100ab575b600080fd5b61006f61006a3660046107ad565b6100be565b005b61006f6103ba565b61006f610087366004610833565b6103ce565b600054604080516001600160a01b039092168252519081900360200190f35b61006f6100b936600461088d565b6105dc565b6001600160a01b0385166100ed5760405162461bcd60e51b81526004016100e4906108af565b60405180910390fd5b8261010a5760405162461bcd60e51b81526004016100e4906108f6565b82811461017f5760405162461bcd60e51b815260206004820152603860248201527f546f6b656e4469737472696275746f723a20726563697069656e747320616e6460448201527f20616d6f756e7473206c656e677468206d69736d61746368000000000000000060648201526084016100e4565b6000805b828110156101f157600084848381811061019f5761019f61093e565b90506020020135116101c35760405162461bcd60e51b81526004016100e490610954565b8383828181106101d5576101d561093e565b90506020020135826101e791906109a3565b9150600101610183565b50604051636eb1769f60e11b81523360048201523060248201526000906001600160a01b0388169063dd62ed3e90604401602060405180830381865afa15801561023f573d6000803e3d6000fd5b505050506040513d601f19601f8201168201806040525081019061026391906109ca565b9050818110156102855760405162461bcd60e51b81526004016100e4906109e3565b60005b8581101561036c5760008787838181106102a4576102a461093e565b90506020020160208101906102b9919061088d565b905060008686848181106102cf576102cf61093e565b60200291909101359150506001600160a01b0382166103005760405162461bcd60e51b81526004016100e490610a2b565b6103156001600160a01b038b1633848461061a565b816001600160a01b03168a6001600160a01b03167fe607861baff3d292b19188affe88c1a72bdcb69d3015f18bb2cd0bf5349cc3e18360405161035a91815260200190565b60405180910390a35050600101610288565b5060408051838152602081018790526001600160a01b038916917ff75d5c8724380d126d0ce1ef2c57b7e856e7fe00051f6184966b31323463cf12910160405180910390a250505050505050565b6103c2610656565b6103cc6000610683565b565b6001600160a01b0384166103f45760405162461bcd60e51b81526004016100e4906108af565b816104115760405162461bcd60e51b81526004016100e4906108f6565b600081116104315760405162461bcd60e51b81526004016100e490610954565b604051636eb1769f60e11b8152336004820152306024820152828202906000906001600160a01b0387169063dd62ed3e90604401602060405180830381865afa158015610482573d6000803e3d6000fd5b505050506040513d601f19601f820116820180604052508101906104a691906109ca565b9050818110156104c85760405162461bcd60e51b81526004016100e4906109e3565b60005b8481101561058f5760008686838181106104e7576104e761093e565b90506020020160208101906104fc919061088d565b90506001600160a01b0381166105245760405162461bcd60e51b81526004016100e490610a2b565b6105396001600160a01b03891633838861061a565b806001600160a01b0316886001600160a01b03167fe607861baff3d292b19188affe88c1a72bdcb69d3015f18bb2cd0bf5349cc3e18760405161057e91815260200190565b60405180910390a3506001016104cb565b5060408051838152602081018690526001600160a01b038816917ff75d5c8724380d126d0ce1ef2c57b7e856e7fe00051f6184966b31323463cf12910160405180910390a2505050505050565b6105e4610656565b6001600160a01b03811661060e57604051631e4fbdf760e01b8152600060048201526024016100e4565b61061781610683565b50565b6106288484848460016106d3565b61065057604051635274afe760e01b81526001600160a01b03851660048201526024016100e4565b50505050565b6000546001600160a01b031633146103cc5760405163118cdaa760e01b81523360048201526024016100e4565b600080546001600160a01b038381166001600160a01b0319831681178455604051919092169283917f8be0079c531659141344cd1fd0a4f28419497f9722a3daafe3b4186f6b6457e09190a35050565b6040516323b872dd60e01b60008181526001600160a01b038781166004528616602452604485905291602083606481808c5af192506001600051148316610733578383151615610726573d6000823e3d81fd5b6000883b113d1516831692505b60405250600060605295945050505050565b80356001600160a01b038116811461075c57600080fd5b919050565b60008083601f84011261077357600080fd5b50813567ffffffffffffffff81111561078b57600080fd5b6020830191508360208260051b85010111156107a657600080fd5b9250929050565b6000806000806000606086880312156107c557600080fd5b6107ce86610745565b9450602086013567ffffffffffffffff8111156107ea57600080fd5b6107f688828901610761565b909550935050604086013567ffffffffffffffff81111561081657600080fd5b61082288828901610761565b969995985093965092949392505050565b6000806000806060858703121561084957600080fd5b61085285610745565b9350602085013567ffffffffffffffff81111561086e57600080fd5b61087a87828801610761565b9598909750949560400135949350505050565b60006020828403121561089f57600080fd5b6108a882610745565b9392505050565b60208082526027908201527f546f6b656e4469737472696275746f723a20696e76616c696420746f6b656e206040820152666164647265737360c81b606082015260800190565b60208082526028908201527f546f6b656e4469737472696275746f723a20656d70747920726563697069656e604082015267747320617272617960c01b606082015260800190565b634e487b7160e01b600052603260045260246000fd5b6020808252602f908201527f546f6b656e4469737472696275746f723a20616d6f756e74206d75737420626560408201526e02067726561746572207468616e203608c1b606082015260800190565b808201808211156109c457634e487b7160e01b600052601160045260246000fd5b92915050565b6000602082840312156109dc57600080fd5b5051919050565b60208082526028908201527f546f6b656e4469737472696275746f723a20696e73756666696369656e7420616040820152676c6c6f77616e636560c01b606082015260800190565b6020808252602b908201527f546f6b656e4469737472696275746f723a20696e76616c69642072656369706960408201526a656e74206164647265737360a81b60608201526080019056fea264697066735822122003446e07180d842ab834fcd93b84b54a805898ce4a31d3fe1f462d9119722fd664736f6c634300081e0033",
        "nonce": "0x5",
        "chainId": "0x61"
      },
      "additionalContracts": [],
      "isFixedGasLimit": false
    },
    {
      "hash": "0x66b32300a1809269e2d7c1abbf9b9d32d6c68ac806bef649449086086121fb6a",
      "transactionType": "CALL",
      "contractName": "AirdropToken",
      "contractAddress": "0x823a018fb1f658a16d0156c97ac5e1a008310066",
      "function": "approve(address,uint256)",
      "arguments": [
        "0xF95CFafb07dC603606ac437EDd6950D6729B070C",
        "1000000000000000000000"
      ],
      "transaction": {
        "from": "0xa106b1558dc86e6bed0869767857be0e7d808852",
        "to": "0x823a018fb1f658a16d0156c97ac5e1a008310066",
        "gas": "0xfa61",
        "value": "0x0",
        "input": "0x095ea7b3000000000000000000000000f95cfafb07dc603606ac437edd6950d6729b070c00000000000000000000000000000000000000000000003635c9adc5dea00000",
        "nonce": "0x6",
        "chainId": "0x61"
      },
      "additionalContracts": [],
      "isFixedGasLimit": false
    },
    {
      "hash": "0xd38626528c876bd0e3052b0f00cd673d7018bb18b6faeb2b778c4bafd0dffa2e",
      "transactionType": "CALL",
      "contractName": "TokenDistributor",
      "contractAddress": "0xf95cfafb07dc603606ac437edd6950d6729b070c",
      "function": "distribute(address,address[],uint256)",
      "arguments": [
        "0x823a018fb1F658A16d0156C97Ac5e1a008310066",
        "[0x2B00A9166290E56990eaDD2c09709A88Bd43146b, 0xaeB7Ff7d6d48E743ba0B86404128F58628A20ac6, 0x3a159d24634A180f3Ab9ff37868358C73226E672, 0x9757724C3EcDC93479a039Eb062F5111f0B66aa5, 0x03c0D6e51079A550827BaEd0b73E8aD631d7C4E3, 0xaf59B12ea11914A0373ffbb13FF8b03F8537C599, 0x0000000000000000000000000000000000000007, 0x0000000000000000000000000000000000000008, 0x0000000000000000000000000000000000000009, 0x000000000000000000000000000000000000000A]",
        "100000000000000000000"
      ],
      "transaction": {
        "from": "0xa106b1558dc86e6bed0869767857be0e7d808852",
        "to": "0xf95cfafb07dc603606ac437edd6950d6729b070c",
        "gas": "0x6ce43",
        "value": "0x0",
        "input": "0x790e51b2000000000000000000000000823a018fb1f658a16d0156c97ac5e1a00831006600000000000000000000000000000000000000000000000000000000000000600000000000000000000000000000000000000000000000056bc75e2d63100000000000000000000000000000000000000000000000000000000000000000000a0000000000000000000000002b00a9166290e56990eadd2c09709a88bd43146b000000000000000000000000aeb7ff7d6d48e743ba0b86404128f58628a20ac60000000000000000000000003a159d24634a180f3ab9ff37868358c73226e6720000000000000000000000009757724c3ecdc93479a039eb062f5111f0b66aa500000000000000000000000003c0d6e51079a550827baed0b73e8ad631d7c4e3000000000000000000000000af59b12ea11914a0373ffbb13ff8b03f8537c599000000000000000000000000000000000000000000000000000000000000000700000000000000000000000000000000000000000000000000000000000000080000000000000000000000000000000000000000000000000000000000000009000000000000000000000000000000000000000000000000000000000000000a",
        "nonce": "0x7",
        "chainId": "0x61"
      },
      "additionalContracts": [],
      "isFixedGasLimit": false
    }
  ],
  "receipts": [
    {
      "status": "0x1",
      "cumulativeGasUsed": "0xb4c46",
      "logs": [
        {
          "address": "0x823a018fb1f658a16d0156c97ac5e1a008310066",
          "topics": [
            "0x8be0079c531659141344cd1fd0a4f28419497f9722a3daafe3b4186f6b6457e0",
            "0x0000000000000000000000000000000000000000000000000000000000000000",
            "0x000000000000000000000000a106b1558dc86e6bed0869767857be0e7d808852"
          ],
          "data": "0x",
          "blockHash": "0xe7690e3b49dd0c80c3fa1e6cd1562a8020d0c51fe64362a8d01c3e31f0e49e68",
          "blockNumber": "0x45b94ff",
          "blockTimestamp": "0x6919ec5c",
          "transactionHash": "0x40e97311efb2c269edcfa1122f236ec0cae64313707ba6c3b9a30c5507fca808",
          "transactionIndex": "0x0",
          "logIndex": "0x0",
          "removed": false
        },
        {
          "address": "0x823a018fb1f658a16d0156c97ac5e1a008310066",
          "topics": [
            "0xddf252ad1be2c89b69c2b068fc378daa952ba7f163c4a11628f55a4df523b3ef",
            "0x0000000000000000000000000000000000000000000000000000000000000000",
            "0x000000000000000000000000a106b1558dc86e6bed0869767857be0e7d808852"
          ],
          "data": "0x00000000000000000000000000000000000000000000d3c21bcecceda1000000",
          "blockHash": "0xe7690e3b49dd0c80c3fa1e6cd1562a8020d0c51fe64362a8d01c3e31f0e49e68",
          "blockNumber": "0x45b94ff",
          "blockTimestamp": "0x6919ec5c",
          "transactionHash": "0x40e97311efb2c269edcfa1122f236ec0cae64313707ba6c3b9a30c5507fca808",
          "transactionIndex": "0x0",
          "logIndex": "0x1",
          "removed": false
        },
        {
          "address": "0x823a018fb1f658a16d0156c97ac5e1a008310066",
          "topics": [
            "0xddf252ad1be2c89b69c2b068fc378daa952ba7f163c4a11628f55a4df523b3ef",
            "0x0000000000000000000000000000000000000000000000000000000000000000",
            "0x0000000000000000000000002b00a9166290e56990eadd2c09709a88bd43146b"
          ],
          "data": "0x00000000000000000000000000000000000000000000d3c21bcecceda1000000",
          "blockHash": "0xe7690e3b49dd0c80c3fa1e6cd1562a8020d0c51fe64362a8d01c3e31f0e49e68",
          "blockNumber": "0x45b94ff",
          "blockTimestamp": "0x6919ec5c",
          "transactionHash": "0x40e97311efb2c269edcfa1122f236ec0cae64313707ba6c3b9a30c5507fca808",
          "transactionIndex": "0x0",
          "logIndex": "0x2",
          "removed": false
        }
      ],
      "logsBloom": "0x00000000000000000000000000000001000000000000000000800000000000404000000000000000000000000000000000000000000000000000000000000000000000000000000000000008000000000001000000000000000000000000000000000004020000000000000000000804000000000000000000000010000000400000000000000000000000000000000000000000000000000000000000000004000000000000000000000040000000000000000000000000000000000000000000000002000000000000000000800000000000000000000000000000000020000000000000000000000000000000000000000000000010000000000000000000",
      "type": "0x2",
      "transactionHash": "0x40e97311efb2c269edcfa1122f236ec0cae64313707ba6c3b9a30c5507fca808",
      "transactionIndex": "0x0",
      "blockHash": "0xe7690e3b49dd0c80c3fa1e6cd1562a8020d0c51fe64362a8d01c3e31f0e49e68",
      "blockNumber": "0x45b94ff",
      "gasUsed": "0xb4c46",
      "effectiveGasPrice": "0x97fde980",
      "from": "0xa106b1558dc86e6bed0869767857be0e7d808852",
      "to": null,
      "contractAddress": "0x823a018fb1f658a16d0156c97ac5e1a008310066"
    },
    {
      "status": "0x1",
      "cumulativeGasUsed": "0x15818c",
      "logs": [
        {
          "address": "0xf95cfafb07dc603606ac437edd6950d6729b070c",
          "topics": [
            "0x8be0079c531659141344cd1fd0a4f28419497f9722a3daafe3b4186f6b6457e0",
            "0x0000000000000000000000000000000000000000000000000000000000000000",
            "0x000000000000000000000000a106b1558dc86e6bed0869767857be0e7d808852"
          ],
          "data": "0x",
          "blockHash": "0xe7690e3b49dd0c80c3fa1e6cd1562a8020d0c51fe64362a8d01c3e31f0e49e68",
          "blockNumber": "0x45b94ff",
          "blockTimestamp": "0x6919ec5c",
          "transactionHash": "0xd4ec4be4e4983524922e74b0ba5e88af4cb7f63c3ee984082ace0c31b778b660",
          "transactionIndex": "0x1",
          "logIndex": "0x3",
          "removed": false
        }
      ],
      "logsBloom": "0x00000000000000000000000000000000000000000000000000800000000000000000000000000000000000000000000000000000000000000000000000000000000000000000000000000000000000000001000000000000000000000000000200000000020000000000000000000804000000000000000000000000000000400000000000000000000000000000000000000000000000000000000000200000000000000000000020000040000000000000000000000000000000000000000000000000000000000000000000000000000000000000000000000000000020000000000000000000000000000000000000000000000010000000000000000000",
      "type": "0x2",
      "transactionHash": "0xd4ec4be4e4983524922e74b0ba5e88af4cb7f63c3ee984082ace0c31b778b660",
      "transactionIndex": "0x1",
      "blockHash": "0xe7690e3b49dd0c80c3fa1e6cd1562a8020d0c51fe64362a8d01c3e31f0e49e68",
      "blockNumber": "0x45b94ff",
      "gasUsed": "0xa3546",
      "effectiveGasPrice": "0x97fde980",
      "from": "0xa106b1558dc86e6bed0869767857be0e7d808852",
      "to": null,
      "contractAddress": "0xf95cfafb07dc603606ac437edd6950d6729b070c"
    },
    {
      "status": "0x1",
      "cumulativeGasUsed": "0x1636d2",
      "logs": [
        {
          "address": "0x823a018fb1f658a16d0156c97ac5e1a008310066",
          "topics": [
            "0x8c5be1e5ebec7d5bd14f71427d1e84f3dd0314c0f7b2291e5b200ac8c7c3b925",
            "0x000000000000000000000000a106b1558dc86e6bed0869767857be0e7d808852",
            "0x000000000000000000000000f95cfafb07dc603606ac437edd6950d6729b070c"
          ],
          "data": "0x00000000000000000000000000000000000000000000003635c9adc5dea00000",
          "blockHash": "0xe7690e3b49dd0c80c3fa1e6cd1562a8020d0c51fe64362a8d01c3e31f0e49e68",
          "blockNumber": "0x45b94ff",
          "blockTimestamp": "0x6919ec5c",
          "transactionHash": "0x66b32300a1809269e2d7c1abbf9b9d32d6c68ac806bef649449086086121fb6a",
          "transactionIndex": "0x2",
          "logIndex": "0x4",
          "removed": false
        }
      ],
      "logsBloom": "0x00000000000000000000000000000001000000000004000000000000000000000000000000000000000000000000000000000000000000000000000000200000000000000000000000000000000000000000000000000000000000000000000000000004000000000000000000000004000000000000000000000000000000000000000000000000000000000000000000000000000000000000000000000004020000000000000200000040000000000000000000000000000000000000000000000000000000000000000000000000000000000000000000000000000000000010000000000000000000000000000000000000000010000000000000004000",
      "type": "0x2",
      "transactionHash": "0x66b32300a1809269e2d7c1abbf9b9d32d6c68ac806bef649449086086121fb6a",
      "transactionIndex": "0x2",
      "blockHash": "0xe7690e3b49dd0c80c3fa1e6cd1562a8020d0c51fe64362a8d01c3e31f0e49e68",
      "blockNumber": "0x45b94ff",
      "gasUsed": "0xb546",
      "effectiveGasPrice": "0x97fde980",
      "from": "0xa106b1558dc86e6bed0869767857be0e7d808852",
      "to": "0x823a018fb1f658a16d0156c97ac5e1a008310066",
      "contractAddress": null
    },
    {
      "status": "0x1",
      "cumulativeGasUsed": "0x1ade1d",
      "logs": [
        {
          "address": "0x823a018fb1f658a16d0156c97ac5e1a008310066",
          "topics": [
            "0xddf252ad1be2c89b69c2b068fc378daa952ba7f163c4a11628f55a4df523b3ef",
            "0x000000000000000000000000a106b1558dc86e6bed0869767857be0e7d808852",
            "0x0000000000000000000000002b00a9166290e56990eadd2c09709a88bd43146b"
          ],
          "data": "0x0000000000000000000000000000000000000000000000056bc75e2d63100000",
          "blockHash": "0xe7690e3b49dd0c80c3fa1e6cd1562a8020d0c51fe64362a8d01c3e31f0e49e68",
          "blockNumber": "0x45b94ff",
          "blockTimestamp": "0x6919ec5c",
          "transactionHash": "0xd38626528c876bd0e3052b0f00cd673d7018bb18b6faeb2b778c4bafd0dffa2e",
          "transactionIndex": "0x3",
          "logIndex": "0x5",
          "removed": false
        },
        {
          "address": "0xf95cfafb07dc603606ac437edd6950d6729b070c",
          "topics": [
            "0xe607861baff3d292b19188affe88c1a72bdcb69d3015f18bb2cd0bf5349cc3e1",
            "0x000000000000000000000000823a018fb1f658a16d0156c97ac5e1a008310066",
            "0x0000000000000000000000002b00a9166290e56990eadd2c09709a88bd43146b"
          ],
          "data": "0x0000000000000000000000000000000000000000000000056bc75e2d63100000",
          "blockHash": "0xe7690e3b49dd0c80c3fa1e6cd1562a8020d0c51fe64362a8d01c3e31f0e49e68",
          "blockNumber": "0x45b94ff",
          "blockTimestamp": "0x6919ec5c",
          "transactionHash": "0xd38626528c876bd0e3052b0f00cd673d7018bb18b6faeb2b778c4bafd0dffa2e",
          "transactionIndex": "0x3",
          "logIndex": "0x6",
          "removed": false
        },
        {
          "address": "0x823a018fb1f658a16d0156c97ac5e1a008310066",
          "topics": [
            "0xddf252ad1be2c89b69c2b068fc378daa952ba7f163c4a11628f55a4df523b3ef",
            "0x000000000000000000000000a106b1558dc86e6bed0869767857be0e7d808852",
            "0x000000000000000000000000aeb7ff7d6d48e743ba0b86404128f58628a20ac6"
          ],
          "data": "0x0000000000000000000000000000000000000000000000056bc75e2d63100000",
          "blockHash": "0xe7690e3b49dd0c80c3fa1e6cd1562a8020d0c51fe64362a8d01c3e31f0e49e68",
          "blockNumber": "0x45b94ff",
          "blockTimestamp": "0x6919ec5c",
          "transactionHash": "0xd38626528c876bd0e3052b0f00cd673d7018bb18b6faeb2b778c4bafd0dffa2e",
          "transactionIndex": "0x3",
          "logIndex": "0x7",
          "removed": false
        },
        {
          "address": "0xf95cfafb07dc603606ac437edd6950d6729b070c",
          "topics": [
            "0xe607861baff3d292b19188affe88c1a72bdcb69d3015f18bb2cd0bf5349cc3e1",
            "0x000000000000000000000000823a018fb1f658a16d0156c97ac5e1a008310066",
            "0x000000000000000000000000aeb7ff7d6d48e743ba0b86404128f58628a20ac6"
          ],
          "data": "0x0000000000000000000000000000000000000000000000056bc75e2d63100000",
          "blockHash": "0xe7690e3b49dd0c80c3fa1e6cd1562a8020d0c51fe64362a8d01c3e31f0e49e68",
          "blockNumber": "0x45b94ff",
          "blockTimestamp": "0x6919ec5c",
          "transactionHash": "0xd38626528c876bd0e3052b0f00cd673d7018bb18b6faeb2b778c4bafd0dffa2e",
          "transactionIndex": "0x3",
          "logIndex": "0x8",
          "removed": false
        },
        {
          "address": "0x823a018fb1f658a16d0156c97ac5e1a008310066",
          "topics": [
            "0xddf252ad1be2c89b69c2b068fc378daa952ba7f163c4a11628f55a4df523b3ef",
            "0x000000000000000000000000a106b1558dc86e6bed0869767857be0e7d808852",
            "0x0000000000000000000000003a159d24634a180f3ab9ff37868358c73226e672"
          ],
          "data": "0x0000000000000000000000000000000000000000000000056bc75e2d63100000",
          "blockHash": "0xe7690e3b49dd0c80c3fa1e6cd1562a8020d0c51fe64362a8d01c3e31f0e49e68",
          "blockNumber": "0x45b94ff",
          "blockTimestamp": "0x6919ec5c",
          "transactionHash": "0xd38626528c876bd0e3052b0f00cd673d7018bb18b6faeb2b778c4bafd0dffa2e",
          "transactionIndex": "0x3",
          "logIndex": "0x9",
          "removed": false
        },
        {
          "address": "0xf95cfafb07dc603606ac437edd6950d6729b070c",
          "topics": [
            "0xe607861baff3d292b19188affe88c1a72bdcb69d3015f18bb2cd0bf5349cc3e1",
            "0x000000000000000000000000823a018fb1f658a16d0156c97ac5e1a008310066",
            "0x0000000000000000000000003a159d24634a180f3ab9ff37868358c73226e672"
          ],
          "data": "0x0000000000000000000000000000000000000000000000056bc75e2d63100000",
          "blockHash": "0xe7690e3b49dd0c80c3fa1e6cd1562a8020d0c51fe64362a8d01c3e31f0e49e68",
          "blockNumber": "0x45b94ff",
          "blockTimestamp": "0x6919ec5c",
          "transactionHash": "0xd38626528c876bd0e3052b0f00cd673d7018bb18b6faeb2b778c4bafd0dffa2e",
          "transactionIndex": "0x3",
          "logIndex": "0xa",
          "removed": false
        },
        {
          "address": "0x823a018fb1f658a16d0156c97ac5e1a008310066",
          "topics": [
            "0xddf252ad1be2c89b69c2b068fc378daa952ba7f163c4a11628f55a4df523b3ef",
            "0x000000000000000000000000a106b1558dc86e6bed0869767857be0e7d808852",
            "0x0000000000000000000000009757724c3ecdc93479a039eb062f5111f0b66aa5"
          ],
          "data": "0x0000000000000000000000000000000000000000000000056bc75e2d63100000",
          "blockHash": "0xe7690e3b49dd0c80c3fa1e6cd1562a8020d0c51fe64362a8d01c3e31f0e49e68",
          "blockNumber": "0x45b94ff",
          "blockTimestamp": "0x6919ec5c",
          "transactionHash": "0xd38626528c876bd0e3052b0f00cd673d7018bb18b6faeb2b778c4bafd0dffa2e",
          "transactionIndex": "0x3",
          "logIndex": "0xb",
          "removed": false
        },
        {
          "address": "0xf95cfafb07dc603606ac437edd6950d6729b070c",
          "topics": [
            "0xe607861baff3d292b19188affe88c1a72bdcb69d3015f18bb2cd0bf5349cc3e1",
            "0x000000000000000000000000823a018fb1f658a16d0156c97ac5e1a008310066",
            "0x0000000000000000000000009757724c3ecdc93479a039eb062f5111f0b66aa5"
          ],
          "data": "0x0000000000000000000000000000000000000000000000056bc75e2d63100000",
          "blockHash": "0xe7690e3b49dd0c80c3fa1e6cd1562a8020d0c51fe64362a8d01c3e31f0e49e68",
          "blockNumber": "0x45b94ff",
          "blockTimestamp": "0x6919ec5c",
          "transactionHash": "0xd38626528c876bd0e3052b0f00cd673d7018bb18b6faeb2b778c4bafd0dffa2e",
          "transactionIndex": "0x3",
          "logIndex": "0xc",
          "removed": false
        },
        {
          "address": "0x823a018fb1f658a16d0156c97ac5e1a008310066",
          "topics": [
            "0xddf252ad1be2c89b69c2b068fc378daa952ba7f163c4a11628f55a4df523b3ef",
            "0x000000000000000000000000a106b1558dc86e6bed0869767857be0e7d808852",
            "0x00000000000000000000000003c0d6e51079a550827baed0b73e8ad631d7c4e3"
          ],
          "data": "0x0000000000000000000000000000000000000000000000056bc75e2d63100000",
          "blockHash": "0xe7690e3b49dd0c80c3fa1e6cd1562a8020d0c51fe64362a8d01c3e31f0e49e68",
          "blockNumber": "0x45b94ff",
          "blockTimestamp": "0x6919ec5c",
          "transactionHash": "0xd38626528c876bd0e3052b0f00cd673d7018bb18b6faeb2b778c4bafd0dffa2e",
          "transactionIndex": "0x3",
          "logIndex": "0xd",
          "removed": false
        },
        {
          "address": "0xf95cfafb07dc603606ac437edd6950d6729b070c",
          "topics": [
            "0xe607861baff3d292b19188affe88c1a72bdcb69d3015f18bb2cd0bf5349cc3e1",
            "0x000000000000000000000000823a018fb1f658a16d0156c97ac5e1a008310066",
            "0x00000000000000000000000003c0d6e51079a550827baed0b73e8ad631d7c4e3"
          ],
          "data": "0x0000000000000000000000000000000000000000000000056bc75e2d63100000",
          "blockHash": "0xe7690e3b49dd0c80c3fa1e6cd1562a8020d0c51fe64362a8d01c3e31f0e49e68",
          "blockNumber": "0x45b94ff",
          "blockTimestamp": "0x6919ec5c",
          "transactionHash": "0xd38626528c876bd0e3052b0f00cd673d7018bb18b6faeb2b778c4bafd0dffa2e",
          "transactionIndex": "0x3",
          "logIndex": "0xe",
          "removed": false
        },
        {
          "address": "0x823a018fb1f658a16d0156c97ac5e1a008310066",
          "topics": [
            "0xddf252ad1be2c89b69c2b068fc378daa952ba7f163c4a11628f55a4df523b3ef",
            "0x000000000000000000000000a106b1558dc86e6bed0869767857be0e7d808852",
            "0x000000000000000000000000af59b12ea11914a0373ffbb13ff8b03f8537c599"
          ],
          "data": "0x0000000000000000000000000000000000000000000000056bc75e2d63100000",
          "blockHash": "0xe7690e3b49dd0c80c3fa1e6cd1562a8020d0c51fe64362a8d01c3e31f0e49e68",
          "blockNumber": "0x45b94ff",
          "blockTimestamp": "0x6919ec5c",
          "transactionHash": "0xd38626528c876bd0e3052b0f00cd673d7018bb18b6faeb2b778c4bafd0dffa2e",
          "transactionIndex": "0x3",
          "logIndex": "0xf",
          "removed": false
        },
        {
          "address": "0xf95cfafb07dc603606ac437edd6950d6729b070c",
          "topics": [
            "0xe607861baff3d292b19188affe88c1a72bdcb69d3015f18bb2cd0bf5349cc3e1",
            "0x000000000000000000000000823a018fb1f658a16d0156c97ac5e1a008310066",
            "0x000000000000000000000000af59b12ea11914a0373ffbb13ff8b03f8537c599"
          ],
          "data": "0x0000000000000000000000000000000000000000000000056bc75e2d63100000",
          "blockHash": "0xe7690e3b49dd0c80c3fa1e6cd1562a8020d0c51fe64362a8d01c3e31f0e49e68",
          "blockNumber": "0x45b94ff",
          "blockTimestamp": "0x6919ec5c",
          "transactionHash": "0xd38626528c876bd0e3052b0f00cd673d7018bb18b6faeb2b778c4bafd0dffa2e",
          "transactionIndex": "0x3",
          "logIndex": "0x10",
          "removed": false
        },
        {
          "address": "0x823a018fb1f658a16d0156c97ac5e1a008310066",
          "topics": [
            "0xddf252ad1be2c89b69c2b068fc378daa952ba7f163c4a11628f55a4df523b3ef",
            "0x000000000000000000000000a106b1558dc86e6bed0869767857be0e7d808852",
            "0x0000000000000000000000000000000000000000000000000000000000000007"
          ],
          "data": "0x0000000000000000000000000000000000000000000000056bc75e2d63100000",
          "blockHash": "0xe7690e3b49dd0c80c3fa1e6cd1562a8020d0c51fe64362a8d01c3e31f0e49e68",
          "blockNumber": "0x45b94ff",
          "blockTimestamp": "0x6919ec5c",
          "transactionHash": "0xd38626528c876bd0e3052b0f00cd673d7018bb18b6faeb2b778c4bafd0dffa2e",
          "transactionIndex": "0x3",
          "logIndex": "0x11",
          "removed": false
        },
        {
          "address": "0xf95cfafb07dc603606ac437edd6950d6729b070c",
          "topics": [
            "0xe607861baff3d292b19188affe88c1a72bdcb69d3015f18bb2cd0bf5349cc3e1",
            "0x000000000000000000000000823a018fb1f658a16d0156c97ac5e1a008310066",
            "0x0000000000000000000000000000000000000000000000000000000000000007"
          ],
          "data": "0x0000000000000000000000000000000000000000000000056bc75e2d63100000",
          "blockHash": "0xe7690e3b49dd0c80c3fa1e6cd1562a8020d0c51fe64362a8d01c3e31f0e49e68",
          "blockNumber": "0x45b94ff",
          "blockTimestamp": "0x6919ec5c",
          "transactionHash": "0xd38626528c876bd0e3052b0f00cd673d7018bb18b6faeb2b778c4bafd0dffa2e",
          "transactionIndex": "0x3",
          "logIndex": "0x12",
          "removed": false
        },
        {
          "address": "0x823a018fb1f658a16d0156c97ac5e1a008310066",
          "topics": [
            "0xddf252ad1be2c89b69c2b068fc378daa952ba7f163c4a11628f55a4df523b3ef",
            "0x000000000000000000000000a106b1558dc86e6bed0869767857be0e7d808852",
            "0x0000000000000000000000000000000000000000000000000000000000000008"
          ],
          "data": "0x0000000000000000000000000000000000000000000000056bc75e2d63100000",
          "blockHash": "0xe7690e3b49dd0c80c3fa1e6cd1562a8020d0c51fe64362a8d01c3e31f0e49e68",
          "blockNumber": "0x45b94ff",
          "blockTimestamp": "0x6919ec5c",
          "transactionHash": "0xd38626528c876bd0e3052b0f00cd673d7018bb18b6faeb2b778c4bafd0dffa2e",
          "transactionIndex": "0x3",
          "logIndex": "0x13",
          "removed": false
        },
        {
          "address": "0xf95cfafb07dc603606ac437edd6950d6729b070c",
          "topics": [
            "0xe607861baff3d292b19188affe88c1a72bdcb69d3015f18bb2cd0bf5349cc3e1",
            "0x000000000000000000000000823a018fb1f658a16d0156c97ac5e1a008310066",
            "0x0000000000000000000000000000000000000000000000000000000000000008"
          ],
          "data": "0x0000000000000000000000000000000000000000000000056bc75e2d63100000",
          "blockHash": "0xe7690e3b49dd0c80c3fa1e6cd1562a8020d0c51fe64362a8d01c3e31f0e49e68",
          "blockNumber": "0x45b94ff",
          "blockTimestamp": "0x6919ec5c",
          "transactionHash": "0xd38626528c876bd0e3052b0f00cd673d7018bb18b6faeb2b778c4bafd0dffa2e",
          "transactionIndex": "0x3",
          "logIndex": "0x14",
          "removed": false
        },
        {
          "address": "0x823a018fb1f658a16d0156c97ac5e1a008310066",
          "topics": [
            "0xddf252ad1be2c89b69c2b068fc378daa952ba7f163c4a11628f55a4df523b3ef",
            "0x000000000000000000000000a106b1558dc86e6bed0869767857be0e7d808852",
            "0x0000000000000000000000000000000000000000000000000000000000000009"
          ],
          "data": "0x0000000000000000000000000000000000000000000000056bc75e2d63100000",
          "blockHash": "0xe7690e3b49dd0c80c3fa1e6cd1562a8020d0c51fe64362a8d01c3e31f0e49e68",
          "blockNumber": "0x45b94ff",
          "blockTimestamp": "0x6919ec5c",
          "transactionHash": "0xd38626528c876bd0e3052b0f00cd673d7018bb18b6faeb2b778c4bafd0dffa2e",
          "transactionIndex": "0x3",
          "logIndex": "0x15",
          "removed": false
        },
        {
          "address": "0xf95cfafb07dc603606ac437edd6950d6729b070c",
          "topics": [
            "0xe607861baff3d292b19188affe88c1a72bdcb69d3015f18bb2cd0bf5349cc3e1",
            "0x000000000000000000000000823a018fb1f658a16d0156c97ac5e1a008310066",
            "0x0000000000000000000000000000000000000000000000000000000000000009"
          ],
          "data": "0x0000000000000000000000000000000000000000000000056bc75e2d63100000",
          "blockHash": "0xe7690e3b49dd0c80c3fa1e6cd1562a8020d0c51fe64362a8d01c3e31f0e49e68",
          "blockNumber": "0x45b94ff",
          "blockTimestamp": "0x6919ec5c",
          "transactionHash": "0xd38626528c876bd0e3052b0f00cd673d7018bb18b6faeb2b778c4bafd0dffa2e",
          "transactionIndex": "0x3",
          "logIndex": "0x16",
          "removed": false
        },
        {
          "address": "0x823a018fb1f658a16d0156c97ac5e1a008310066",
          "topics": [
            "0xddf252ad1be2c89b69c2b068fc378daa952ba7f163c4a11628f55a4df523b3ef",
            "0x000000000000000000000000a106b1558dc86e6bed0869767857be0e7d808852",
            "0x000000000000000000000000000000000000000000000000000000000000000a"
          ],
          "data": "0x0000000000000000000000000000000000000000000000056bc75e2d63100000",
          "blockHash": "0xe7690e3b49dd0c80c3fa1e6cd1562a8020d0c51fe64362a8d01c3e31f0e49e68",
          "blockNumber": "0x45b94ff",
          "blockTimestamp": "0x6919ec5c",
          "transactionHash": "0xd38626528c876bd0e3052b0f00cd673d7018bb18b6faeb2b778c4bafd0dffa2e",
          "transactionIndex": "0x3",
          "logIndex": "0x17",
          "removed": false
        },
        {
          "address": "0xf95cfafb07dc603606ac437edd6950d6729b070c",
          "topics": [
            "0xe607861baff3d292b19188affe88c1a72bdcb69d3015f18bb2cd0bf5349cc3e1",
            "0x000000000000000000000000823a018fb1f658a16d0156c97ac5e1a008310066",
            "0x000000000000000000000000000000000000000000000000000000000000000a"
          ],
          "data": "0x0000000000000000000000000000000000000000000000056bc75e2d63100000",
          "blockHash": "0xe7690e3b49dd0c80c3fa1e6cd1562a8020d0c51fe64362a8d01c3e31f0e49e68",
          "blockNumber": "0x45b94ff",
          "blockTimestamp": "0x6919ec5c",
          "transactionHash": "0xd38626528c876bd0e3052b0f00cd673d7018bb18b6faeb2b778c4bafd0dffa2e",
          "transactionIndex": "0x3",
          "logIndex": "0x18",
          "removed": false
        },
        {
          "address": "0xf95cfafb07dc603606ac437edd6950d6729b070c",
          "topics": [
            "0xf75d5c8724380d126d0ce1ef2c57b7e856e7fe00051f6184966b31323463cf12",
            "0x000000000000000000000000823a018fb1f658a16d0156c97ac5e1a008310066"
          ],
          "data": "0x00000000000000000000000000000000000000000000003635c9adc5dea00000000000000000000000000000000000000000000000000000000000000000000a",
          "blockHash": "0xe7690e3b49dd0c80c3fa1e6cd1562a8020d0c51fe64362a8d01c3e31f0e49e68",
          "blockNumber": "0x45b94ff",
          "blockTimestamp": "0x6919ec5c",
          "transactionHash": "0xd38626528c876bd0e3052b0f00cd673d7018bb18b6faeb2b778c4bafd0dffa2e",
          "transactionIndex": "0x3",
          "logIndex": "0x19",
          "removed": false
        }
      ],
      "logsBloom": "0x000000000000000000000000000000010000000000000000c00000002100004040000000000000000000008040000000000010000400800000200100002000000000200000000004000000080000000000000000000000000000080000000402000000040000020000000000000000040000000000000000000000100000080000800000000000000100000080000000020010000000000000000000002000040000000000000000201000400000000000000000000000000000000800100000400000020000000000000000008000000c0000000000000000004100000000000000080000000000000000000000000000000000000010000000000000802000",
      "type": "0x2",
      "transactionHash": "0xd38626528c876bd0e3052b0f00cd673d7018bb18b6faeb2b778c4bafd0dffa2e",
      "transactionIndex": "0x3",
      "blockHash": "0xe7690e3b49dd0c80c3fa1e6cd1562a8020d0c51fe64362a8d01c3e31f0e49e68",
      "blockNumber": "0x45b94ff",
      "gasUsed": "0x4a74b",
      "effectiveGasPrice": "0x97fde980",
      "from": "0xa106b1558dc86e6bed0869767857be0e7d808852",
      "to": "0xf95cfafb07dc603606ac437edd6950d6729b070c",
      "contractAddress": null
    }
  ],
  "libraries": [],
  "pending": [],
  "returns": {},
  "timestamp": 1763306589914,
  "chain": 97,
  "commit": "aa7c6f9"
}